{
  "_format": "hh-sol-artifact-1",
  "contractName": "VotingSystem",
  "sourceName": "contracts/Voting.sol",
  "abi": [
    {
      "inputs": [],
      "stateMutability": "nonpayable",
      "type": "constructor"
    },
    {
      "anonymous": false,
      "inputs": [
        {
          "indexed": false,
          "internalType": "uint256",
          "name": "id",
          "type": "uint256"
        },
        {
          "indexed": false,
          "internalType": "string",
          "name": "name",
          "type": "string"
        },
        {
          "indexed": false,
          "internalType": "uint256",
          "name": "organizationId",
          "type": "uint256"
        }
      ],
      "name": "CandidateAdded",
      "type": "event"
    },
    {
      "anonymous": false,
      "inputs": [
        {
          "indexed": false,
          "internalType": "uint256",
          "name": "id",
          "type": "uint256"
        },
        {
          "indexed": false,
          "internalType": "string",
          "name": "name",
          "type": "string"
        }
      ],
      "name": "OrganizationAdded",
      "type": "event"
    },
    {
      "anonymous": false,
      "inputs": [
        {
          "indexed": false,
          "internalType": "address",
          "name": "voter",
          "type": "address"
        },
        {
          "indexed": false,
          "internalType": "uint256",
          "name": "candidateId",
          "type": "uint256"
        }
      ],
      "name": "VoteCasted",
      "type": "event"
    },
    {
      "inputs": [
        {
          "internalType": "string",
          "name": "_name",
          "type": "string"
        },
        {
          "internalType": "uint256",
          "name": "_organizationId",
          "type": "uint256"
        }
      ],
      "name": "addCandidate",
      "outputs": [],
      "stateMutability": "nonpayable",
      "type": "function"
    },
    {
      "inputs": [
        {
          "internalType": "string",
          "name": "_name",
          "type": "string"
        }
      ],
      "name": "addOrganization",
      "outputs": [],
      "stateMutability": "nonpayable",
      "type": "function"
    },
    {
      "inputs": [],
      "name": "candidateCount",
      "outputs": [
        {
          "internalType": "uint256",
          "name": "",
          "type": "uint256"
        }
      ],
      "stateMutability": "view",
      "type": "function"
    },
    {
      "inputs": [
        {
          "internalType": "uint256",
          "name": "",
          "type": "uint256"
        }
      ],
      "name": "candidates",
      "outputs": [
        {
          "internalType": "uint256",
          "name": "id",
          "type": "uint256"
        },
        {
          "internalType": "string",
          "name": "name",
          "type": "string"
        },
        {
          "internalType": "uint256",
          "name": "voteCount",
          "type": "uint256"
        },
        {
          "internalType": "uint256",
          "name": "organizationId",
          "type": "uint256"
        }
      ],
      "stateMutability": "view",
      "type": "function"
    },
    {
      "inputs": [],
      "name": "getAllOrganizations",
      "outputs": [
        {
          "components": [
            {
              "internalType": "uint256",
              "name": "id",
              "type": "uint256"
            },
            {
              "internalType": "string",
              "name": "name",
              "type": "string"
            },
            {
              "internalType": "bool",
              "name": "isActive",
              "type": "bool"
            },
            {
              "internalType": "uint256",
              "name": "candidateCount",
              "type": "uint256"
            }
          ],
          "internalType": "struct VotingSystem.Organization[]",
          "name": "",
          "type": "tuple[]"
        }
      ],
      "stateMutability": "view",
      "type": "function"
    },
    {
      "inputs": [
        {
          "internalType": "uint256",
          "name": "_organizationId",
          "type": "uint256"
        }
      ],
      "name": "getCandidatesByOrganization",
      "outputs": [
        {
          "components": [
            {
              "internalType": "uint256",
              "name": "id",
              "type": "uint256"
            },
            {
              "internalType": "string",
              "name": "name",
              "type": "string"
            },
            {
              "internalType": "uint256",
              "name": "voteCount",
              "type": "uint256"
            },
            {
              "internalType": "uint256",
              "name": "organizationId",
              "type": "uint256"
            }
          ],
          "internalType": "struct VotingSystem.Candidate[]",
          "name": "",
          "type": "tuple[]"
        }
      ],
      "stateMutability": "view",
      "type": "function"
    },
    {
      "inputs": [
        {
          "internalType": "address",
          "name": "_user",
          "type": "address"
        },
        {
          "internalType": "uint256",
          "name": "_organizationId",
          "type": "uint256"
        }
      ],
      "name": "hasUserVoted",
      "outputs": [
        {
          "internalType": "bool",
          "name": "",
          "type": "bool"
        }
      ],
      "stateMutability": "view",
      "type": "function"
    },
    {
      "inputs": [
        {
          "internalType": "address",
          "name": "",
          "type": "address"
        },
        {
          "internalType": "uint256",
          "name": "",
          "type": "uint256"
        }
      ],
      "name": "hasVoted",
      "outputs": [
        {
          "internalType": "bool",
          "name": "",
          "type": "bool"
        }
      ],
      "stateMutability": "view",
      "type": "function"
    },
    {
      "inputs": [
        {
          "internalType": "uint256",
          "name": "",
          "type": "uint256"
        },
        {
          "internalType": "uint256",
          "name": "",
          "type": "uint256"
        }
      ],
      "name": "organizationCandidates",
      "outputs": [
        {
          "internalType": "uint256",
          "name": "",
          "type": "uint256"
        }
      ],
      "stateMutability": "view",
      "type": "function"
    },
    {
      "inputs": [],
      "name": "organizationCount",
      "outputs": [
        {
          "internalType": "uint256",
          "name": "",
          "type": "uint256"
        }
      ],
      "stateMutability": "view",
      "type": "function"
    },
    {
      "inputs": [
        {
          "internalType": "uint256",
          "name": "",
          "type": "uint256"
        }
      ],
      "name": "organizations",
      "outputs": [
        {
          "internalType": "uint256",
          "name": "id",
          "type": "uint256"
        },
        {
          "internalType": "string",
          "name": "name",
          "type": "string"
        },
        {
          "internalType": "bool",
          "name": "isActive",
          "type": "bool"
        },
        {
          "internalType": "uint256",
          "name": "candidateCount",
          "type": "uint256"
        }
      ],
      "stateMutability": "view",
      "type": "function"
    },
    {
      "inputs": [],
      "name": "owner",
      "outputs": [
        {
          "internalType": "address",
          "name": "",
          "type": "address"
        }
      ],
      "stateMutability": "view",
      "type": "function"
    },
    {
      "inputs": [
        {
          "internalType": "uint256",
          "name": "_candidateId",
          "type": "uint256"
        }
      ],
      "name": "vote",
      "outputs": [],
      "stateMutability": "nonpayable",
      "type": "function"
    }
  ],
  "bytecode": "0x608060405234801561001057600080fd5b50336000806101000a81548173ffffffffffffffffffffffffffffffffffffffff021916908373ffffffffffffffffffffffffffffffffffffffff16021790555060006001819055506000600281905550611bd2806100706000396000f3fe608060405234801561001057600080fd5b50600436106100cf5760003560e01c80638da5cb5b1161008c578063d46f96ed11610066578063d46f96ed14610229578063e23cec7b14610259578063e792dd8a14610275578063f1c62104146102a8576100cf565b80638da5cb5b146101bd578063a62e376b146101db578063a9a981a31461020b576100cf565b80630121b93f146100d4578063086ed938146100f05780633477ee2e1461010e5780633e5932d4146101415780634254582514610171578063710de504146101a1575b600080fd5b6100ee60048036038101906100e99190610dea565b6102c6565b005b6100f8610494565b6040516101059190610ff6565b60405180910390f35b61012860048036038101906101239190610dea565b610624565b6040516101389493929190611071565b60405180910390f35b61015b60048036038101906101569190610dea565b6106dc565b60405161016891906111e2565b60405180910390f35b61018b60048036038101906101869190611262565b6108cd565b60405161019891906112b1565b60405180910390f35b6101bb60048036038101906101b69190611401565b6108fc565b005b6101c56109db565b6040516101d29190611459565b60405180910390f35b6101f560048036038101906101f09190611474565b6109ff565b60405161020291906114b4565b60405180910390f35b610213610a30565b60405161022091906114b4565b60405180910390f35b610243600480360381019061023e9190611262565b610a36565b60405161025091906112b1565b60405180910390f35b610273600480360381019061026e91906114cf565b610a9e565b005b61028f600480360381019061028a9190610dea565b610c83565b60405161029f949392919061152b565b60405180910390f35b6102b0610d48565b6040516102bd91906114b4565b60405180910390f35b6000811180156102d857506002548111155b610317576040517f08c379a000000000000000000000000000000000000000000000000000000000815260040161030e906115c3565b60405180910390fd5b6000600460008381526020019081526020016000209050600660003373ffffffffffffffffffffffffffffffffffffffff1673ffffffffffffffffffffffffffffffffffffffff16815260200190815260200160002060008260030154815260200190815260200160002060009054906101000a900460ff16156103d0576040517f08c379a00000000000000000000000000000000000000000000000000000000081526004016103c790611655565b60405180910390fd5b6001600660003373ffffffffffffffffffffffffffffffffffffffff1673ffffffffffffffffffffffffffffffffffffffff16815260200190815260200160002060008360030154815260200190815260200160002060006101000a81548160ff021916908315150217905550806002016000815480929190610452906116a4565b91905055507fd0e6c39f2e086dc49f1524b47725526a56945cd1ff661f37976f1725a1e5698633836040516104889291906116ec565b60405180910390a15050565b6060600060015467ffffffffffffffff8111156104b4576104b36112d6565b5b6040519080825280602002602001820160405280156104ed57816020015b6104da610d4e565b8152602001906001900390816104d25790505b5090506000600190505b600154811161061c57600360008281526020019081526020016000206040518060800160405290816000820154815260200160018201805461053890611744565b80601f016020809104026020016040519081016040528092919081815260200182805461056490611744565b80156105b15780601f10610586576101008083540402835291602001916105b1565b820191906000526020600020905b81548152906001019060200180831161059457829003601f168201915b505050505081526020016002820160009054906101000a900460ff16151515158152602001600382015481525050826001836105ed9190611775565b815181106105fe576105fd6117a9565b5b60200260200101819052508080610614906116a4565b9150506104f7565b508091505090565b600460205280600052604060002060009150905080600001549080600101805461064d90611744565b80601f016020809104026020016040519081016040528092919081815260200182805461067990611744565b80156106c65780601f1061069b576101008083540402835291602001916106c6565b820191906000526020600020905b8154815290600101906020018083116106a957829003601f168201915b5050505050908060020154908060030154905084565b606060006005600084815260200190815260200160002080548060200260200160405190810160405280929190818152602001828054801561073d57602002820191906000526020600020905b815481526020019060010190808311610729575b505050505090506000815167ffffffffffffffff811115610761576107606112d6565b5b60405190808252806020026020018201604052801561079a57816020015b610787610d78565b81526020019060019003908161077f5790505b50905060005b82518110156108c257600460008483815181106107c0576107bf6117a9565b5b60200260200101518152602001908152602001600020604051806080016040529081600082015481526020016001820180546107fb90611744565b80601f016020809104026020016040519081016040528092919081815260200182805461082790611744565b80156108745780601f1061084957610100808354040283529160200191610874565b820191906000526020600020905b81548152906001019060200180831161085757829003601f168201915b50505050508152602001600282015481526020016003820154815250508282815181106108a4576108a36117a9565b5b602002602001018190525080806108ba906116a4565b9150506107a0565b508092505050919050565b60066020528160005260406000206020528060005260406000206000915091509054906101000a900460ff1681565b6001600081548092919061090f906116a4565b919050555060405180608001604052806001548152602001828152602001600115158152602001600081525060036000600154815260200190815260200160002060008201518160000155602082015181600101908161096f9190611984565b5060408201518160020160006101000a81548160ff021916908315150217905550606082015181600301559050507fb24c3d9b9bcdf95b249d054e0ef0dd12d935e6c6fdffac8b00e56d2d94032bcb600154826040516109d0929190611a56565b60405180910390a150565b60008054906101000a900473ffffffffffffffffffffffffffffffffffffffff1681565b60056020528160005260406000208181548110610a1b57600080fd5b90600052602060002001600091509150505481565b60025481565b6000600660008473ffffffffffffffffffffffffffffffffffffffff1673ffffffffffffffffffffffffffffffffffffffff168152602001908152602001600020600083815260200190815260200160002060009054906101000a900460ff16905092915050565b600081118015610ab057506001548111155b610aef576040517f08c379a0000000000000000000000000000000000000000000000000000000008152600401610ae690611ad2565b60405180910390fd5b6003600082815260200190815260200160002060020160009054906101000a900460ff16610b52576040517f08c379a0000000000000000000000000000000000000000000000000000000008152600401610b4990611b3e565b60405180910390fd5b60026000815480929190610b65906116a4565b9190505550604051806080016040528060025481526020018381526020016000815260200182815250600460006002548152602001908152602001600020600082015181600001556020820151816001019081610bc29190611984565b506040820151816002015560608201518160030155905050600560008281526020019081526020016000206002549080600181540180825580915050600190039060005260206000200160009091909190915055600360008281526020019081526020016000206003016000815480929190610c3d906116a4565b91905055507fc0a81c9aad7f882e7dd72db314924227026255cc5ad0164435df572dec8c804d6002548383604051610c7793929190611b5e565b60405180910390a15050565b6003602052806000526040600020600091509050806000015490806001018054610cac90611744565b80601f0160208091040260200160405190810160405280929190818152602001828054610cd890611744565b8015610d255780601f10610cfa57610100808354040283529160200191610d25565b820191906000526020600020905b815481529060010190602001808311610d0857829003601f168201915b5050505050908060020160009054906101000a900460ff16908060030154905084565b60015481565b60405180608001604052806000815260200160608152602001600015158152602001600081525090565b6040518060800160405280600081526020016060815260200160008152602001600081525090565b6000604051905090565b600080fd5b600080fd5b6000819050919050565b610dc781610db4565b8114610dd257600080fd5b50565b600081359050610de481610dbe565b92915050565b600060208284031215610e0057610dff610daa565b5b6000610e0e84828501610dd5565b91505092915050565b600081519050919050565b600082825260208201905092915050565b6000819050602082019050919050565b610e4c81610db4565b82525050565b600081519050919050565b600082825260208201905092915050565b60005b83811015610e8c578082015181840152602081019050610e71565b60008484015250505050565b6000601f19601f8301169050919050565b6000610eb482610e52565b610ebe8185610e5d565b9350610ece818560208601610e6e565b610ed781610e98565b840191505092915050565b60008115159050919050565b610ef781610ee2565b82525050565b6000608083016000830151610f156000860182610e43565b5060208301518482036020860152610f2d8282610ea9565b9150506040830151610f426040860182610eee565b506060830151610f556060860182610e43565b508091505092915050565b6000610f6c8383610efd565b905092915050565b6000602082019050919050565b6000610f8c82610e17565b610f968185610e22565b935083602082028501610fa885610e33565b8060005b85811015610fe45784840389528151610fc58582610f60565b9450610fd083610f74565b925060208a01995050600181019050610fac565b50829750879550505050505092915050565b600060208201905081810360008301526110108184610f81565b905092915050565b61102181610db4565b82525050565b600082825260208201905092915050565b600061104382610e52565b61104d8185611027565b935061105d818560208601610e6e565b61106681610e98565b840191505092915050565b60006080820190506110866000830187611018565b81810360208301526110988186611038565b90506110a76040830185611018565b6110b46060830184611018565b95945050505050565b600081519050919050565b600082825260208201905092915050565b6000819050602082019050919050565b60006080830160008301516111016000860182610e43565b50602083015184820360208601526111198282610ea9565b915050604083015161112e6040860182610e43565b5060608301516111416060860182610e43565b508091505092915050565b600061115883836110e9565b905092915050565b6000602082019050919050565b6000611178826110bd565b61118281856110c8565b935083602082028501611194856110d9565b8060005b858110156111d057848403895281516111b1858261114c565b94506111bc83611160565b925060208a01995050600181019050611198565b50829750879550505050505092915050565b600060208201905081810360008301526111fc818461116d565b905092915050565b600073ffffffffffffffffffffffffffffffffffffffff82169050919050565b600061122f82611204565b9050919050565b61123f81611224565b811461124a57600080fd5b50565b60008135905061125c81611236565b92915050565b6000806040838503121561127957611278610daa565b5b60006112878582860161124d565b925050602061129885828601610dd5565b9150509250929050565b6112ab81610ee2565b82525050565b60006020820190506112c660008301846112a2565b92915050565b600080fd5b600080fd5b7f4e487b7100000000000000000000000000000000000000000000000000000000600052604160045260246000fd5b61130e82610e98565b810181811067ffffffffffffffff8211171561132d5761132c6112d6565b5b80604052505050565b6000611340610da0565b905061134c8282611305565b919050565b600067ffffffffffffffff82111561136c5761136b6112d6565b5b61137582610e98565b9050602081019050919050565b82818337600083830152505050565b60006113a461139f84611351565b611336565b9050828152602081018484840111156113c0576113bf6112d1565b5b6113cb848285611382565b509392505050565b600082601f8301126113e8576113e76112cc565b5b81356113f8848260208601611391565b91505092915050565b60006020828403121561141757611416610daa565b5b600082013567ffffffffffffffff81111561143557611434610daf565b5b611441848285016113d3565b91505092915050565b61145381611224565b82525050565b600060208201905061146e600083018461144a565b92915050565b6000806040838503121561148b5761148a610daa565b5b600061149985828601610dd5565b92505060206114aa85828601610dd5565b9150509250929050565b60006020820190506114c96000830184611018565b92915050565b600080604083850312156114e6576114e5610daa565b5b600083013567ffffffffffffffff81111561150457611503610daf565b5b611510858286016113d3565b925050602061152185828601610dd5565b9150509250929050565b60006080820190506115406000830187611018565b81810360208301526115528186611038565b905061156160408301856112a2565b61156e6060830184611018565b95945050505050565b7f496e76616c69642063616e646964617465000000000000000000000000000000600082015250565b60006115ad601183611027565b91506115b882611577565b602082019050919050565b600060208201905081810360008301526115dc816115a0565b9050919050565b7f416c726561647920766f74656420696e2074686973206f7267616e697a61746960008201527f6f6e000000000000000000000000000000000000000000000000000000000000602082015250565b600061163f602283611027565b915061164a826115e3565b604082019050919050565b6000602082019050818103600083015261166e81611632565b9050919050565b7f4e487b7100000000000000000000000000000000000000000000000000000000600052601160045260246000fd5b60006116af82610db4565b91507fffffffffffffffffffffffffffffffffffffffffffffffffffffffffffffffff82036116e1576116e0611675565b5b600182019050919050565b6000604082019050611701600083018561144a565b61170e6020830184611018565b9392505050565b7f4e487b7100000000000000000000000000000000000000000000000000000000600052602260045260246000fd5b6000600282049050600182168061175c57607f821691505b60208210810361176f5761176e611715565b5b50919050565b600061178082610db4565b915061178b83610db4565b92508282039050818111156117a3576117a2611675565b5b92915050565b7f4e487b7100000000000000000000000000000000000000000000000000000000600052603260045260246000fd5b60008190508160005260206000209050919050565b60006020601f8301049050919050565b600082821b905092915050565b60006008830261183a7fffffffffffffffffffffffffffffffffffffffffffffffffffffffffffffffff826117fd565b61184486836117fd565b95508019841693508086168417925050509392505050565b6000819050919050565b600061188161187c61187784610db4565b61185c565b610db4565b9050919050565b6000819050919050565b61189b83611866565b6118af6118a782611888565b84845461180a565b825550505050565b600090565b6118c46118b7565b6118cf818484611892565b505050565b5b818110156118f3576118e86000826118bc565b6001810190506118d5565b5050565b601f82111561193857611909816117d8565b611912846117ed565b81016020851015611921578190505b61193561192d856117ed565b8301826118d4565b50505b505050565b600082821c905092915050565b600061195b6000198460080261193d565b1980831691505092915050565b6000611974838361194a565b9150826002028217905092915050565b61198d82610e52565b67ffffffffffffffff8111156119a6576119a56112d6565b5b6119b08254611744565b6119bb8282856118f7565b600060209050601f8311600181146119ee57600084156119dc578287015190505b6119e68582611968565b865550611a4e565b601f1984166119fc866117d8565b60005b82811015611a24578489015182556001820191506020850194506020810190506119ff565b86831015611a415784890151611a3d601f89168261194a565b8355505b6001600288020188555050505b505050505050565b6000604082019050611a6b6000830185611018565b8181036020830152611a7d8184611038565b90509392505050565b7f496e76616c6964206f7267616e697a6174696f6e000000000000000000000000600082015250565b6000611abc601483611027565b9150611ac782611a86565b602082019050919050565b60006020820190508181036000830152611aeb81611aaf565b9050919050565b7f4f7267616e697a6174696f6e206e6f7420616374697665000000000000000000600082015250565b6000611b28601783611027565b9150611b3382611af2565b602082019050919050565b60006020820190508181036000830152611b5781611b1b565b9050919050565b6000606082019050611b736000830186611018565b8181036020830152611b858185611038565b9050611b946040830184611018565b94935050505056fea26469706673582212205bca505b364c7025fc3ba11dc1dfb87b1b7057cd60b9497910242c908ba4374764736f6c63430008130033",
  "linkReferences": {},
  "deployedLinkReferences": {}
}